:020000040800F2
:10000000B0060020152100084D0200084F0200082C
:1000100053020008570200085B02000800000000BD
:100020000000000000000000000000005F02000867
:100030006102000800000000630200086502000879
:100040002F2100082F2100082F2100082F21000850
:100050002F2100082F2100082F2100082F21000840
:100060002F2100082F2100082F2100082F21000830
:100070002F2100082F2100082F2100082F21000820
:100080002F2100082F2100082F2100082F21000810
:100090002F2100082F2100082F210008EF0400085D
:1000A0002F2100082F2100082F2100082F210008F0
:1000B0002F2100082F2100082F2100082F210008E0
:1000C0002F2100082F2100082F2100082F210008D0
:1000D0002F2100082F2100082F2100082F210008C0
:1000E0002F2100082F2100082F2100082F210008B0
:1000F0002F2100082F2100082F2100082F210008A0
:100100002F2100082F2100082F2100082F2100088F
:100110002F2100082F2100082F2100082F2100087F
:100120002F2100082F2100082F2100082F2100086F
:10013000DFF80CD003F02EFD004800474501000811
:10014000B006002008B500F0F5FB00F04EFC01F011
:10015000F9F9002000F0FAFD00BF05202F490880C2
:1001600041202F49088000202E4908702E49087030
:100170002E4908702E4908702E49087010202E490B
:10018000087000202D4908702D4908702D4908700D
:1001900008E003F07BF90C2190FBF1F201FB120067
:1001A000254908701F4800780028F2D001F01CFA99
:1001B000214802781A4801881848008801F0DEFAC0
:1001C00008E003F063F9132190FBF1F201FB120048
:1001D0001A4908701A4800780028F2D01A480368B3
:1001E000009300234FF4FC621E215A2000F0A6FE6B
:1001F00000200C49087008E003F048F90C2190FB3E
:10020000F1F201FB12000C49087006480078002842
:10021000F2D0002000F09AFD9FE7000004000020CB
:10022000060000200A0000200C0000200D00002025
:100230000F0000200E000020080000200900002010
:100240000B0000201000002000000020704700BFBD
:10025000FEE700BFFEE700BFFEE700BFFEE7704716
:100260007047704708B5F9480078401CF749087096
:10027000F7480078401CF6490870F6480078401CA2
:10028000F4490870F1480078092873DD0020EF492F
:100290000870F1480078012821D1F048008814380E
:1002A00081B2EF480278EF48008801F0ECFB0128AA
:1002B00060D1EB480278E9480188EA48008801F0FB
:1002C0001BFBE64800881438E4490880E4480278BB
:1002D00008460188E348008801F050FA4AE0E24805
:1002E0000078012821D1DE480278DC4800881430EB
:1002F00081B2DC48008801F0C6FB01283AD1D84819
:100300000278D6480188D748008801F0F5FAD3482A
:1003100000881430D1490880D14802780846018805
:10032000D048008801F02AFA24E0D048007801285B
:1003300020D1CB480278C9480188CA4800881430C7
:1003400080B201F0A0FB012814D1C5480278C3484F
:100350000188C448008801F0CFFAC24800881430F0
:10036000C0490880BE480278BC480188BD48008862
:1003700001F004FAB6480078152830DD0020B449B1
:100380000870BB480078012829D1B548007800EBF7
:100390004000B84901EB40000279B0480188B148FB
:1003A000008801F070FB012819D1AD480278AB48F4
:1003B0000188AC48008801F09FFAA948007800EB5A
:1003C0004000AC4901EB40000079A549087008469F
:1003D0000278A2480188A348008801F0CFF99D481F
:1003E000007863287ADD00209A4908709C480278DA
:1003F0009A4801889B480088143080B201F043FB82
:10040000012815D1964802789448018895480088BB
:1004100001F072FA9348008814309249088090489D
:1004200002788E4801888F48008801F0A7F955E0CE
:100430008B480278894801888A48008801F0FEFBD1
:1004400000EB80008C49097808448B490870084605
:100450000078F0282CDA0846007801F08BF88748FD
:1004600000787F49087005207E49088041207B493B
:1004700008807B480278084601887A48008801F0A5
:1004800002FB012808D17648027874480188754833
:10049000008801F073F921E00120794908704FF0DC
:1004A000E020006920F001004FF0E021086115E034
:1004B0004FF0E020006920F001004FF0E0210861DA
:1004C000002000F043FC6FA3009300234FF4784218
:1004D0000521084600F0B5FC00BFFEE74FF0E02024
:1004E000006920F480304FF0E021086108BD38B584
:1004F000802001F09DFE01287ED17249724800F0F3
:10050000F9FE71480088B0F5917F60DD6E48008883
:10051000B0F59D7F5BDC6B480088052857DD694896
:1005200000882D2853DA4FF4784300932D2340F2AE
:100530003B1205214FF4917000F025FD63A3009359
:10054000012300220A2140F2271000F07AFC01204A
:100550004149087008E002F099FF132190FBF1F285
:1005600001FB12004549087080215A4802F0D3FE71
:100570000028F0D03C2400E0641E002CFCD108E0F0
:1005800002F084FF132190FBF1F201FB12003B49C2
:10059000087080214F4802F0BEFE0028F0D04FF6D0
:1005A0001F0300932D2340F23B1205214FF491705D
:1005B00000F0E9FC48A30093012300220A2140F245
:1005C000271000F03EFC0020234908708EE13E48D1
:1005D0000088B0F5917F37DD3B480088B0F59D7FFE
:1005E00032DC3848008844282EDD364800886C28E4
:1005F0002ADA4FF4784300E07BE100936C2340F269
:100600003B1244214FF4917000F0BDFC34A30093E1
:1006100001230022442140F2271000F012FC0120A7
:100620001149087008E002F031FF132190FBF1F24C
:1006300001FB1200114908708021264802F06BFE70
:100640000028F0D03C2450E079E0000012000020A7
:1006500013000020140000200C00002006000020E1
:1006600008000020040000200D0000200F000020E2
:100670000E0000201A0000201000002009000020B9
:100680000B000020596F7520627265616B206D79D7
:1006900020506F696E74206375702C2077617761CC
:1006A0002C536F20492073687574646F776E2074C3
:1006B0006865206D616368696E65202167616761A7
:1006C0007E7E000018000020160000206C65667415
:1006D00000000000002001404C656674000000002E
:1006E0007269676874000000641E002CFCD108E089
:1006F00002F0CCFE132190FBF1F201FB12007D49C8
:10070000087080217C4802F006FE0028F0D04FF6E9
:100710001F0300936C2340F23B1244214FF491706D
:1007200000F031FC75A3009301230022442140F224
:10073000271000F086FB002072490870D6E072484E
:100740000088B0F5917F60DD6F480088B0F59D7F2F
:100750005BDC6E480088832857DD6C480088AB2836
:1007600053DA4FF478430093AB2340F23B128321DA
:100770004FF4917000F007FC65A300930123002261
:10078000882140F2271000F05CFB012062490870CC
:1007900008E002F07BFE132190FBF1F201FB120056
:1007A000544908708021544802F0B5FD0028F0D06B
:1007B0003C2400E0641E002CFCD108E002F066FE40
:1007C000132190FBF1F201FB12004A4908708021CD
:1007D000494802F0A0FD0028F0D04FF61F03009317
:1007E000AB2340F23B1283214FF4917000F0CBFB1E
:1007F0004AA3009301230022882140F2271000F031
:1008000020FB00204449087070E03F480088B0F5A4
:10081000917F60DD3C480088B0F59D7F5BDC3B4804
:100820000088C22857DD39480088EA2853DA4FF497
:1008300078430093EA2340F23B12C2214FF49170B7
:1008400000F0A1FB37A3009301230022CC2140F24A
:10085000271000F0F6FA01203349087008E002F092
:1008600015FE132190FBF1F201FB120021490870E3
:100870008021214802F04FFD0028F0D03C2400E008
:10088000641E002CFCD108E002F000FE132190FB56
:10089000F1F201FB1200174908708021164802F09E
:1008A0003AFD0028F0D04FF61F030093EA2340F2F0
:1008B0003B12C2214FF4917000F065FB1BA3009323
:1008C00001230022CC2140F2271000F0BAFA0020C8
:1008D000154908700AE00C480088642806DA0B48BD
:1008E0000088642802DD012011490870802001F091
:1008F000B0FC38BD090000200020014052696E673D
:10090000740000000D0000201600002018000020D8
:10091000646F776E000000000F000020446F776E58
:1009200000000000757000000E00002055700000EF
:100930000A00002000B587B018208DF81B00482061
:100940008DF817004FF40070ADF818004000ADF8B6
:10095000140003208DF81A008DF816004FF416507D
:1009600001900020ADF810000C20ADF80E00002022
:10097000ADF80C00ADF80A00ADF80800012144F212
:10098000040002F06CFB06A9124802F033FC05A932
:10099000104802F02FFC01A90F4802F036F801219F
:1009A0000D4802F0BEF807B000BD00BF0A4A128829
:1009B00012F0800FFAD0C2B2084B1A80704701467D
:1009C00000BF0548008810F0200FFAD003480088C7
:1009D0007047000000080140003801400438014021
:1009E0004FF0D84210805180704700B59BB0012174
:1009F00040F2091002F033FB4FF48050ADF868006C
:100A000010208DF86B0003208DF86A001AA9FE48AB
:100A100002F0F0FB4FF48051FB4802F096FC4FF4DB
:100A20000040ADF868001AA9F74802F0E3FB4FF464
:100A30000041F54802F089FC4FF40050ADF8680021
:100A40001AA9F14802F0D6FB4FF40051EE4802F02B
:100A50007EFC4FF48040ADF8680048208DF86B00B4
:100A60001AA9E94802F0C6FB4FF48070ADF868009F
:100A70001AA9E64802F0BEFB8020ADF868001AA96A
:100A8000E24802F0B7FB0721062002F0C7FC8020F5
:100A9000189001208DF8660000208DF864000C206D
:100AA0008DF8650018A801F056FB17208DF85C0042
:100AB00001208DF85F000F208DF85D008DF85E003D
:100AC0004FF4A06001F0E2FE17A801F0E4FE01215E
:100AD000080202F0B7FA01214FF4F07002F0BFFAF9
:100AE0004CF23370ADF8680018208DF86B000320CD
:100AF0008DF86A001AA9C64802F07CFB4FF6807098
:100B0000ADF8680018208DF86B0003208DF86A009E
:100B10001AA9C04802F06EFB0120ADF868001AA9BE
:100B2000BD4802F067FB4FF48050ADF868001AA989
:100B3000B64802F05FFB01A81590169008A801F0D6
:100B4000D7FC002007900290012001900020049023
:100B5000059006900220039000200D90062008903A
:100B600000200C900990139010200B9000200A9008
:100B7000129010900E900F9014904FF4805011909E
:100B800008A801F0C6FB0121062001F023FD012188
:100B90000020FFF725FF4AF6A4010320FFF720FFFE
:100BA00000210C20FFF71CFF40F60C010D20FFF781
:100BB00017FF4FF42C510E20FFF712FFB0211E201B
:100BC000FFF70EFF42F63F310120FFF709FF4FF418
:100BD000C0610220FFF704FF00211020FFF700FF93
:100BE00046F270011120FFF7FBFE00210520FFF700
:100BF000F7FE00210620FFF7F3FE4EF61C711620CB
:100C0000FFF7EEFE03211720FFF7EAFE40F2332143
:100C10000720FFF7E5FE00210B20FFF7E1FE002192
:100C20000F20FFF7DDFE00214120FFF7D9FE002154
:100C30004220FFF7D5FE00214820FFF7D1FE40F209
:100C40003F114920FFF7CCFE00214A20FFF7C8FEE4
:100C500000214B20FFF7C4FE4FF46F414420FFF703
:100C6000BFFE00214520FFF7BBFE40F23F114620AA
:100C7000FFF7B6FE40F207713020FFF7B1FE4FF4E8
:100C800001713120FFF7ACFE4FF401713220FFF704
:100C9000A7FE40F202513320FFF7A2FE40F20751B7
:100CA0003420FFF79DFE4FF401713520FFF798FEC9
:100CB0004FF401713620FFF793FE40F202513720C6
:100CC000FFF78EFE40F202313A20FFF789FE40F234
:100CD00002313B20FFF784FE00212320FFF780FE36
:100CE00000212420FFF77CFE4FF400412520FFF770
:100CF00077FE00214E20FFF773FE00214F20FFF703
:100D00006FFE1BB000BD10B503460C4621464E20B9
:100D1000FFF766FE19464F20FFF762FE10BD10B5C3
:100D2000B0F5A07F01DAF02900DB10BD4E234FF0B3
:100D3000D8442380234659804F232380234658805C
:100D40002223238023465A8000BFEEE74E224FF035
:100D5000D8431A8000225A804F221A8040F23F1254
:100D60005A8022221A80002103E04FF0D84250809E
:100D7000491CB1F5963FF8D370472DE9F04F064670
:100D80000F4693469946DDF824A0B9F1010F21D111
:100D900000241CE0AAF1200004EB00101F4911F808
:100DA000008000250FE0C5F1070048FA00F010F0C0
:100DB000010F06D07A1991B2321990B25A46FFF754
:100DC000AEFF681CC5B2082DEDDB601CC4B2102C50
:100DD000E0DB34E0002430E0AAF1200004EB001056
:100DE0000E4911F80080002523E0C5F1070048FAFC
:100DF00000F010F0010F13D07A1991B2321990B2AD
:100E00005A46FFF78CFF12E0000C01400020014021
:100E10000014014000180140001C0140D63B0008AE
:100E20007A1991B2321990B24A46FFF778FF681CDE
:100E3000C5B2082DD9DB601CC4B2102CCCDBBDE8D8
:100E4000F08F2DE9F84304460D4690469946089FD9
:100E5000002616E0E72D03DD002504F1100084B222
:100E6000B4F5987F00DD0024BB5D00934B464246FD
:100E700029462046FFF781FF701C86B205F1080065
:100E800085B2B85D0028E5D1BDE8F8832DE9F04FC3
:100E900006460F4693469946DDF824A0B9F1010FA6
:100EA00021D100241CE0AAF1200000EB400004EB5B
:100EB000C000F84931F8108000250DE048FA05F02F
:100EC00010F0010F06D07A1991B2321990B25A4639
:100ED000FFF725FF681CC5B2102DEFDB601CC4B204
:100EE000182CE0DB28E0002424E0AAF1200000EB2D
:100EF000400004EBC000E74931F81080002515E000
:100F000048FA05F010F0010F07D07A1991B23219A2
:100F100090B25A46FFF703FF06E07A1991B23219F0
:100F200090B24A46FFF7FBFE681CC5B2102DE7DB06
:100F3000601CC4B2182CD8DBBDE8F08F2DE9F84353
:100F400004460D4690469946089F002616E0E12D7E
:100F500003DD002504F1180084B2B4F5957F00DBB1
:100F60000024BB5D00934B46424629462046FFF7CE
:100F70008DFF701C86B205F1100085B2B85D0028A7
:100F8000E5D1BDE8F8832DE9F04304460F46154648
:100F90001E46DDF81C90B5F5A07F01DB40F23F1541
:100FA000EF2E00DDEF26601CA84218DA781CB04254
:100FB00015DA601C84B210E0781C1FFA80F808E093
:100FC0004A4641462046FFF7AAFE08F101001FFAF3
:100FD00080F8B045F4DB601C84B2AC42ECDBBDE8C9
:100FE000F0832DE9F04304460F4615461E46DDF812
:100FF0001C90AC4229DAB74227DAB5F5A07F01DBB5
:1010000040F23F15EF2E00DDEF26A0460BE04A46EA
:1010100039462046FFF783FE4A4631462046FFF711
:101020007EFE601C84B2AC42F1DD45460BE04A46D0
:1010300039462046FFF773FE4A4639462846FFF7F1
:101040006EFE781C87B2B742F1DDBDE8F0832DE972
:10105000FF4F83B005460C4616461F46AE4245DD9F
:10106000A74243DD381B02F076FC8046701B02F07D
:1010700072FC81464946404602F0A8FA0290284692
:1010800002F072FC814628E0204602F06DFC0190DF
:10109000284602F069FC4946009002F05EFA834659
:1010A000029902F05DFA8246019902F001FA804647
:1010B000404602F06FFC1FFA80FA484602F06AFCD4
:1010C0001FFA80FB51465846109AFFF728FE4FF052
:1010D0007E51484602F0ECF98146304602F044FC6D
:1010E0008246494602F082FC1DD8CDE7AE420CDDB7
:1010F000A7420AD106E021462846109AFFF70FFEC4
:10110000681C85B2B542F6DD0DE0AE420BD1A742B8
:1011100009DD06E021462846109AFFF700FE601C14
:1011200084B2BC42F6DD07B0BDE8F08F2DE9FC4F7C
:1011300005460E4617464FF000090020019007F1C2
:101140000209381D0190019800882844B0F5A07F5D
:1011500005DB40F23F10401B1FFA80FA02E00198C5
:10116000B0F800A0B9F800003044EF2804DDC6F163
:10117000EF001FFA80FB01E0B9F800B007F10800AA
:10118000009000241AE04FF0000813E0B9F8003096
:101190006343DDF800C00CEB430333F8182006EB83
:1011A000080399B22B1998B2FFF7B9FD08F10100B5
:1011B0001FFA80F8D845E9DB601C84B25445E2DBB5
:1011C000BDE8FC8FF0B500210846FFF79CFD22200A
:1011D0004FF0D8410880002704E000204FF0D841AC
:1011E00048807F1CB7F5963FF7D30A24002514E00A
:1011F00000260FE000E0641C27488442FBD34FF632
:10120000E072B1B2A8B2FFF78AFD00E0641E0A2CBA
:10121000FCD8761CF02EEDD36D1CB5F5A07FE7D37E
:10122000F0BD70B505464FF480511C4802F08DF8B2
:101230004FF40041194802F088F84FF40051174864
:1012400002F085F84FF48051144802F080F8002431
:101250001DE0C4F1070045FA00F000F0010001288C
:1012600004D1C1030D4802F070F804E04FF40041CE
:101270000A4802F06CF84FF40051084802F065F893
:101280004FF40051054802F062F8601CC4B2082C0B
:10129000DFDB70BDD64100089A5F0100000C014001
:1012A00070B500244FF40051A14802F050F8FF241B
:1012B00001E0601E84B2002CFBD1002516E04FF443
:1012C00000519B4802F041F84FF48041984802F0E9
:1012D00022F8012801D1601C84B24FF400519448D7
:1012E00002F035F86004040C681CC5B20C2DE6DB76
:1012F000204670BD2DE9F04790B080468946002613
:1013000011E0D020FFF78DFFFFF7CAFF06A921F8F3
:1013100016009020FFF785FFFFF7C2FF0BA921F809
:101320001600701CC6B20A2EEBDB00261EE000275A
:1013300016E00BA830F817100BAA781C32F8100032
:1013400081420BDD0BA830F817A00BA9781C31F8EF
:10135000100021F81700781C21F810A0781CC7B2E3
:10136000C6F10900B842E4DC701CC6B20A2EDEDB0E
:1013700000261EE0002716E006A830F8171006AA7F
:10138000781C32F8100081420BDD06A830F817A057
:1013900006A9781C31F8100021F81700781C21F8F4
:1013A00010A0781CC7B2C6F10900B842E4DC701C7A
:1013B000C6B20A2EDEDBBDF81800C8B9012604E06B
:1013C000701CC6B2092E00DD04E006A830F8160035
:1013D0000028F5D000BF092E0ADC00BF06A830F8AF
:1013E0001610701E06AA22F81010C6B2002EF5DCE8
:1013F000BDF82C00C8B9012604E0701CC6B2092E45
:1014000000DD04E00BA830F816000028F5D000BF7E
:10141000092E0ADC00BF0BA830F81610701E0BAAAC
:1014200022F81010C6B2002EF5DCBDF83A00BDF867
:1014300032100844BDF834100844BDF83610084492
:10144000BDF838100844052190FBF1F0A8F8000021
:10145000BDF82600BDF81E100844BDF82010084451
:10146000BDF822100844BDF824100844052190FB63
:10147000F1F0A9F80000B8F8000040F60A718842BF
:1014800003DD0846A8F8000008E0B8F80000B0F551
:10149000E67F03DA4FF4E670A8F80000B9F8000020
:1014A00040F64C61884203DD0846A9F8000008E0D8
:1014B000B9F80000B0F5937F03DC40F22710A9F8DB
:1014C0000000B8F80010A1F5E67002F052FA002210
:1014D000184BCDE9000102F0CFF904460022164B6B
:1014E00002F059F90022144BCDE9020102F050F943
:1014F000CDE9040102F062FAA8F80000B9F8001082
:10150000A1F2271002F035FA00220C4BCDE90201BE
:1015100002F0B2F900220A4BCDE9040102F03BF9D6
:10152000044602F04BFAA9F8000010B0BDE8F087BD
:10153000000C0140007CAA4000007440004AAA4010
:1015400000006E4000BF4FF0FF30002805DA002099
:101550000001FF490B22885404E000200001FD49EE
:101560004A17885400BFFC484FF0E021486106202C
:101570000861704738B50446F8A3009301234FF47F
:10158000FC62BE214520FFF75CFC642094FBF0F078
:101590003030C5B200234FF4FC62C62155200095BF
:1015A000FFF7EBFB642094FBF0F100FB11400A21F4
:1015B00090FBF1F03030C5B200234FF4FC62CE2135
:1015C00055200095FFF7D9FB0A2094FBF0F100FBB2
:1015D00011403030C5B200234FF4FC62D6215520B3
:1015E0000095FFF7CAFB38BD30B589B0DDA00068B3
:1015F0000890DDA003C8CDE90601DDA103C9CDE94E
:101600000401DDA103C9CDE9020105253BE0052464
:1016100034E04FF4FC6304F11400009383B22A46D3
:1016200021462846FFF713FD4FF4FC6304F1140034
:10163000009383B205F1140082B2214680B2FFF715
:1016400006FD4FF4FC630093234605F1140082B2BB
:1016500021462846FFF7FBFC4FF4FC6304F114001D
:10166000009383B205F1140082B204F1140081B238
:101670002846FFF7ECFC04F1140084B2B92CC8DB57
:1016800005F1140085B2B5F58E7FC0DD4FF61F035E
:1016900000932D2340F23B1205214FF49170FFF788
:1016A00072FC04AB0093012300220A2140F22710B0
:1016B000FFF7C7FB4FF61F0300936C2340F23B126A
:1016C00044214FF49170FFF75EFC02AB00930123BD
:1016D0000022442140F22710FFF7B3FB4FF61F030F
:1016E0000093AB2340F23B1283214FF49170FFF73C
:1016F0004AFC06AB009301230022882140F2271008
:10170000FFF79FFB4FF61F030093EA2340F23B12C3
:10171000C2214FF49170FFF736FC08AB0093012310
:101720000022CC2140F22710FFF78BFB002516E0AA
:10173000002410E0002005EBC501914A02EB810175
:1017400001F8240005EBC50102EB810101EB8401E6
:101750004880601C84B2092CECDB681C85B20E2D1D
:10176000E6DB4FF0E020006940F001004FF0E0219F
:1017700008610020FFF7FEFE09B030BD2DE9F843F7
:1017800006460F461546B6F5A07F7EDAF02F7CDAC6
:101790000024ACE0042C24DA05EB4500794931F84B
:1017A0001000C4F10F01084100F00100012817D119
:1017B000B14604EB840007EB80001FFA80F805EBCC
:1017C0004500704901EB4000438808F11400009384
:1017D00083B209F1140082B241464846FFF7D3FBB9
:1017E00083E0082C28DA05EB4500664931F8100043
:1017F000C4F10F01084100F00100012875D106F184
:1018000014001FFA80F9201F00EB800007EB800016
:101810001FFA80F805EB45005A4901EB4000438868
:1018200008F11400009383B209F1140082B241461A
:101830004846FFF7A8FB58E00C2C2BDA05EB4500D7
:10184000504931F81000C4F10F01084100F00100C7
:1018500001284AD106F128001FFA80F9A4F10800F6
:1018600000EB800007EB80001FFA80F805EB4500D5
:10187000444901EB4000438808F11400009383B20F
:1018800009F1140082B2414600E033E04846FFF718
:101890007AFB2AE0102C28DA05EB4500394931F8AB
:1018A0001000C4F10F01084100F0010001281CD113
:1018B00006F13C001FFA80F9A4F10C0000EB800057
:1018C00007EB80001FFA80F805EB45002D4901EB7E
:1018D0004000438808F11400009383B209F114001A
:1018E00082B241464846FFF74EFB601CC4B2102C42
:1018F000FFF650AFBDE8F8832DE9F84305460E46E4
:101900001746B5F5A07F7DDAF02E7BDA0024B5E02E
:10191000042C3CDA07EB47001A4931F81000C4F1F7
:101920000F01084100F0010001282FD1A94604EB66
:10193000840006EB80001FFA80F8002308F11400F1
:10194000009383B209F1140082B2414648461BE07D
:1019500018ED00E000E400E080FC0A00506F696EC2
:101960007400000055700000446F776E00000000A6
:101970004C696674000000005269676874000000DA
:10198000B80000201A000020FFF7FDFA74E0082CD0
:1019900023DA07EB4700FF4931F81000C4F10F01CB
:1019A000084100F00100012866D105F114001FFA7A
:1019B00080F9201F00EB800006EB80001FFA80F802
:1019C000002308F11400009383B209F1140082B2DD
:1019D00041464846FFF7D7FA4EE00C2C26DA07EBD3
:1019E0004700EC4931F81000C4F10F01084100F044
:1019F0000100012840D105F128001FFA80F9A4F167
:101A0000080000E03DE000EB800006EB80001FFADC
:101A100080F8002308F11400009383B209F1140048
:101A200082B241464846FFF7AEFA25E0102C23DA91
:101A300007EB4700D74931F81000C4F10F01084106
:101A400000F00100012817D105F13C001FFA80F9D0
:101A5000A4F10C0000EB800006EB80001FFA80F878
:101A6000002308F11400009383B209F1140082B23C
:101A700041464846FFF787FA601CC4B2102CFFF6B7
:101A800047AFBDE8F883F0B504460D4616462A4632
:101A900023460021CDE004292DDA06EB4600BD4F98
:101AA00037F81000C1F10F07384100F0010001289C
:101AB00077D1234601EB810005EB800082B2052B34
:101AC00006DBB3F58E7F03DC052A01DBB92A01DBD7
:101AD0000020F0BD142093FBF0F000EBC000AE4FEF
:101AE00007EB8000142792FBF7F710F82700012876
:101AF00057D10020EDE7082930DA06EB4600A54F64
:101B000037F81000C1F10F07384100F0010001283B
:101B100047D104F1140083B2081F00EB800005EBED
:101B2000800082B2052B06DBB3F58E7F03DC052A2D
:101B300001DBB92A01DB0020CBE7142093FBF0F096
:101B400000EBC000944F07EB8000142792FBF7F7DF
:101B500010F8270001286AD10020BAE70C2932DAF0
:101B600006EB46008B4F37F81000C1F10F073841E4
:101B700000F0010001285AD104F1280083B2A1F13C
:101B8000080000EB800005EB800082B2052B06DB2D
:101B9000B3F58E7F03DC052A01DBB92A02DB0020C6
:101BA00097E744E0142093FBF0F000EBC0007A4F7D
:101BB00007EB8000142792FBF7F710F827000128A5
:101BC00035D1002085E7102931DA06EB4600714F48
:101BD00037F81000C1F10F07384100F0010001286B
:101BE00025D104F13C0083B2A1F10C0000EB800090
:101BF00005EB800082B2052B06DBB3F58E7F03DC9C
:101C0000052A01DBB92A01DB002062E7142093FBDF
:101C1000F0F000EBC000604F07EB8000142792FB50
:101C2000F7F710F82700012801D1002051E7481CE0
:101C3000C1B21029FFF62FAF01204AE72DE9F84F76
:101C400080468A4617464FF0000B5546464600240C
:101C5000ECE0042C34DA07EB47004E4931F8100071
:101C6000C4F10F01084100F00100012827D14646C8
:101C700004EB84000AEB800085B2142096FBF0F0A0
:101C800000EBC000444901EB8000142195FBF1F109
:101C9000012200F82120142096FBF0F000EBC00098
:101CA0003D4901EB8000142195FBF1F100EB81002F
:101CB00007EB4701374A02EB410149884180B3E015
:101CC000082C37DA07EB4700324931F81000C4F12D
:101CD0000F01084100F0010001282AD108F1140089
:101CE00086B2201F00EB80000AEB800085B2142032
:101CF00096FBF0F000EBC000274901EB80001421B7
:101D000095FBF1F1012200F82120142096FBF0F060
:101D100000EBC000204901EB8000142195FBF1F19C
:101D200000EB810007EB47011A4A02EB41014988A9
:101D3000418079E00C2C3DDA07EB4700154931F87A
:101D40001000C4F10F01084100F0010001286BD11F
:101D500008F1280086B2A4F1080000EB80000AEB2D
:101D6000800085B2142096FBF0F000EBC0000A4919
:101D700001EB8000142195FBF1F1012200F82120F4
:101D8000142096FBF0F000EBC000034901EB80004B
:101D9000142103E01A000020B800002095FBF1F1A7
:101DA00000EB810007EB4701664A02EB41014988DD
:101DB000418039E0102C37DA07EB4700614931F8F0
:101DC0001000C4F10F01084100F0010001282BD1DF
:101DD00008F13C0086B2A4F10C0000EB80000AEB95
:101DE000800085B2142096FBF0F000EBC00056494D
:101DF00001EB8000142195FBF1F1012200F8212074
:101E0000142096FBF0F000EBC0004F4901EB80007E
:101E1000142195FBF1F100EB810007EB4701494AE2
:101E200002EB410149884180601CC4B2102CFFF6CE
:101E300010AF0E2400BF601EC4B24FF0000900BFF7
:101E40000DE004EBC400404901EB800010F82900CC
:101E5000012800D006E009F1010000F0FF09B9F106
:101E6000090FEEDB00BFB9F1090F3CD10BF1010006
:101E700000F0FF0B264626E0002520E0701E00EB58
:101E8000C000314901EB800010F8250006EBC601C7
:101E90002D4A02EB810101F82500701E00EBC00005
:101EA000114601EB800000EB8500408806EBC6017F
:101EB00002EB810101EB85014880681C85B2092D88
:101EC000DCDB701E86B2002ED6DC002508E0002088
:101ED0001D4901F8250001EB85014880681C85B289
:101EE000092DF4DB0E24002CA5D100BF25E04FF016
:101EF00000091DE004EB8400052101EB800609EBDD
:101F0000890001EB800504EBC4000F4901EB800060
:101F100000EB89004388009305F1140306F11402D5
:101F200029463046FFF72FF809F1010000F0FF09BC
:101F3000B9F1090FDEDB601CC4B20E2CD7DB5846AA
:101F4000BDE8F88F1A000020B80000200021002012
:101F5000674A126842F48032654B1A6000BF644AD7
:101F6000126802F40030491C10B9B1F5A06FF6D127
:101F70005F4A126812F4003F01D0012000E0002007
:101F8000012842D15B4A126842F01002594B1A6094
:101F90001A46126822F003021A601A46126842F0CA
:101FA00002021A60524A5268514B5A601A465268ED
:101FB0005A601A46526842F480625A601A46526861
:101FC00022F47C125A601A46526842F4E8125A60AF
:101FD0001A46126842F080721A6000BF444A1268C2
:101FE00012F0007FFAD0424A526822F00302404BBE
:101FF0005A601A46526842F002025A6000BF3C4AD8
:10200000526802F00C02082AF9D1704710B5FFF7A8
:102010009DFF10BD10B53648006840F001003449FE
:10202000086008464068344908403149486008461D
:102030000068324908402E4908600846006820F4CC
:10204000802008600846406820F4FE0048604FF495
:102050001F008860FFF7DAFF4FF000602849086032
:1020600010BD10B5002100200022214B5B6803F059
:102070000C0121B1042906D0082928D107E0214B01
:10208000214C236027E01F4B1F4C236023E0184B9B
:102090005B6803F47010164B5B6803F48032022314
:1020A00003EB904022B9194B4343174C23600DE0DA
:1020B0000F4B5B6813F4003F04D0144B4343124CA6
:1020C000236003E00F4B43430F4C236003E00D4BB1
:1020D0000D4C236000BF00BF054B5B68C3F30313C7
:1020E0000B4CE15C084B1B68CB40074C236010BDD8
:1020F00000100240002002400000FFF8FFFFF6FE43
:1021000008ED00E000127A008C00002000093D007C
:10211000900000200648804706480047FEE7FEE79B
:10212000FEE7FEE7FEE7FEE7FEE7FEE7FEE7FEE787
:102130001520000831010008002047490860474980
:10214000C1F804044649086001F1040108604548EB
:1021500045490860704700213F498279DAB33F4A18
:10216000D2F8002403689A433C4BC3F800241A4673
:10217000D2F8042403689A4301F104031A60027937
:1021800011440A68036842EA03020A60334AD2F83B
:102190000824036822EA0302304BC3F808241A46D5
:1021A000D2F80C24036822EA0302304B1A60427909
:1021B000102A11D1294AD2F8082403681A43274B60
:1021C000C3F808241A46D2F80C2403681A43234B98
:1021D000C3F80C240EE007E01F49427911440A6855
:1021E00003681A430A6005E0027911440A6803682B
:1021F0009A430A6070470021016001710C2141710E
:102200000021817170471A49096841EA0001134AA7
:10221000C2F81014704701460020134A12680A429F
:1022200001D0012000E0002070470F49086070478E
:10223000014600200022084B1B6803EA0102074BFD
:10224000D3F814340B4202D00AB1012000E0002080
:1022500070470549086070470004014000000140D4
:1022600008040140FFFF0F00140401400C0401406A
:102270001004014030B943F2DB014FF0204242F834
:10228000201005E043F2D2014FF0204242F8201026
:102290006FF07042411C4FF0204343F8212011465B
:1022A0001A4602EB8002C2F80411704710280AD1C6
:1022B00018214FF020421166402151664FF0FC3149
:1022C0009166D16610E01821F84A11604FF0400184
:1022D0004FF02042C2F884104FF0FC31F44A1160F4
:1022E0004FF02042C2F88C1070471820F149086066
:1022F0004FF000004FF02041C1F8A4004FF0FC3037
:10230000ED49086001F10401086001F10401086071
:102310007047D0E901121143C268114302691143A9
:102320004269114382691143C2691143026A114330
:10233000426A1143826A1143C26A1143026B11431C
:102340004FF02043026843F822108168082908D121
:102350001A46016852F8211041F04001026843F822
:102360002210416B0968426B526841EA0211426BCC
:10237000926841EA0221426BD26841EA0241426B13
:10238000126941EA0251426B526941EA0261426BB1
:10239000926911430268521C4FF0204343F8221007
:1023A000C16AB1F5804F1AD1816B0968826B52689E
:1023B00041EA0211826B926841EA0221826B126942
:1023C00041EA0251826B526941EA0261826B926971
:1023D0001143026803EB8202C2F8041108E06FF0B7
:1023E00070414FF02043026803EB8202C2F80411EF
:1023F000704730B5002100220023446844F00804EF
:1024000085682C43C5682C4305692C43456944EA1B
:102410004524856944EA4531C4692468C5696D6805
:1024200044EA0524C569AD6844EA0544C569ED6818
:1024300044EA0562046A2468056A6D6844EA052472
:10244000056AAD6844EA0544056AED6844EA056337
:102450000468102C05D14FF020442166A266E36683
:1024600007E0924C21604FF02044C4F88820934C40
:10247000236030BD016841F01001426841EA422109
:10248000826841EA42318B4A1160C1680968C268BA
:10249000526841EA0221C268926841EA0241C26878
:1024A000D26841EA0261844A1160016909680269DF
:1024B000526841EA02210269926841EA02410269D6
:1024C000D26841EA02617E4A116041690968426945
:1024D000526841EA02214269926841EA0241426936
:1024E000D26841EA02614FF02042C2F8B010704752
:1024F000002101600221416000218160C160016111
:1025000041618161C16101624FF4805141624900C2
:1025100081620021C16201630F21426B1160426B35
:102520005160FF21426B91600F21426BD160426B81
:102530001161426B51610021426B91610F21826BED
:102540001160826B5160FF21826B91600F21826B61
:10255000D160826B1161826B51610021826B91614C
:10256000704710210160002141608160C1600161FC
:1025700041618161FC21C2691160C2695160C26917
:102580009160C269D160026A1160026A5160026A98
:102590009160026AD16070470021016041608160F2
:1025A000FC21C2681160C2685160C2689160C26853
:1025B000D16002691160026951600269916002692B
:1025C000D16042691160426951604269916042691B
:1025D000D160704751B14FF0204252F8202042F0B4
:1025E00001024FF0204343F8202009E04FF0204241
:1025F00052F82020334B1A404FF0204343F820205C
:10260000704799B1102808D14FF02042126E42F065
:1026100004024FF020431A661DE0244A126842F07B
:1026200004024FF02043C3F8802014E0102809D1A1
:102630004FF02042126E234BDB1E1A404FF0204316
:102640001A6608E0194A12681F4B02EA03024FF0AB
:102650002043C3F88020704740B11649096841F013
:1026600004014FF02042C2F8A01008E011490968A7
:10267000154A01EA02014FF02042C2F8A01070474B
:1026800099B1102808D14FF02042126E42F040025A
:102690004FF020431A662DE0044A126842F04002CF
:1026A0004FF02043C3F8802024E00FE0800000A01A
:1026B000880000A0A00000A0A80000A08C0000A03E
:1026C000AC0000A0FEFF0F00FBFF0F00102808D198
:1026D0004FF02042126E684B1A404FF020431A66AA
:1026E00008E0664A1268644B02EA03024FF0204396
:1026F000C3F88020704701460020102903D14FF015
:102700002042506F01E05E4A1068704710B5F2B188
:10271000102807D14FF020435B6E0B434FF020444D
:10272000636632E0B0F5807F08D1564B1B6843EA00
:1027300001034FF02044C4F8843026E0524B1B685C
:1027400043EA01034FF02044C4F8A4301DE01028F0
:1027500007D14FF020435B6E8B434FF020446366FC
:1027600013E0B0F5807F08D1464B1B6823EA0103D4
:102770004FF02044C4F8843007E0434B1B6823EA41
:1027800001034FF02044C4F8A43010BD10B5024638
:1027900000200023102A03D14FF02044636E07E08D
:1027A000B2F5807F02D1374C236801E0364C2368B4
:1027B0000B4201D0012000E0002010BD102807D1FD
:1027C0004FF02042526E8A434FF020435A6613E086
:1027D000B0F5807F08D12B4A126822EA01024FF03F
:1027E0002043C3F8842007E0274A126822EA010246
:1027F0004FF02043C3F8A420704770B50246002074
:10280000002300240025102A03D14FF02046736EC8
:1028100007E0B2F5807F02D11A4E336801E01A4E0C
:10282000336803EA010403EAD10514B10DB10120B4
:1028300000E0002070BD102808D14FF02042526EF9
:1028400022EAD1024FF020435A6613E0B0F5807FB0
:1028500008D10C4A126822EAD1024FF02043C3F893
:10286000842007E0084A126822EAD1024FF0204390
:10287000C3F8A42070470000BFFF0F00800000A035
:10288000940000A0840000A0A40000A036490143E9
:10289000364A1160704770B5002100230F22C478BA
:1028A0004CB3324C246804F4E064C4F5E0644FEAAD
:1028B0001421C1F1040322FA01F2447804FA03F16D
:1028C000847804EA020444EA01014FEA0111284C29
:1028D0000678A155047804F01F054FF0010404FAAE
:1028E00005F405784FEA65154FF0E02606EB8505FF
:1028F000C5F8004109E0047804F01F050124AC404C
:102900001C4D0678761145F8264070BD1A4A0A40DB
:1029100002431A4B1A60704741B1194A126842EAE1
:1029200000024FF0E023C3F8102D07E0144A1268AC
:1029300022EA00024FF0E023C3F8102D704704286C
:1029400008D14FF0E021096941F004014FF0E02285
:10295000116107E04FF0E021096921F004014FF017
:10296000E0221161704700000000FA050CED00E064
:1029700000E400E080E100E080FFFF1F08ED00E0E0
:1029800010ED00E010B50446FC48844209D1012155
:10299000880300F07EFB00214FF4804000F079FBBB
:1029A00032E0F748844209D10121480400F07EFB5F
:1029B00000214FF4003000F079FB25E0F14884421B
:1029C00009D10121880400F071FB00214FF480201F
:1029D00000F06CFB18E0EC48844209D10121C804E6
:1029E00000F064FB00214FF4002000F05FFB0BE0DF
:1029F000E648844208D10121080500F057FB002178
:102A00004FF4801000F052FB10BD2DE9F04786B066
:102A100005460E460024A24600BFA1460027B08905
:102A200000B100BF2F462C8A4CF6FF700440F0889E
:102A300004432C82AC894EF6F3100440B0883189EF
:102A40000843718908430443AC81AC8A4FF6FF40C8
:102A50000440B0890443AC8201A800F093FAC7484F
:102A6000874202D1DDF810A001E0DDF80CA0A889B2
:102A700010F4004F08D00AEBCA0000EB0A103168CE
:102A80004900B0FBF1F807E00AEBCA0000EB0A10BE
:102A900031688900B0FBF1F86420B8FBF0F0040164
:102AA0002009642101FB1089A88910F4004F08D087
:102AB000322000EBC900B0FBF1F000F00700044346
:102AC00008E0322000EB09106421B0FBF1F000F0C7
:102AD0000F0004432C8106B0BDE8F0874FF4165177
:102AE000016000218180C18001810C214181002190
:102AF0008181704710B502460020108A4FF2FF0313
:102B000018400B884C8823438C882343CC8823436C
:102B10001843108210BD0021018041808180C18056
:102B2000704721B1828942F40052828104E0828997
:102B30004DF6FF731A4082817047F0B503460024BA
:102B4000002600250020A1F510676A3F00D100BFD4
:102B50001846C1F3421401F01F06012707FA06F5D3
:102B6000012C01D10C3004E0022C01D1103000E026
:102B700014301AB107682F43076002E00768AF43BB
:102B80000760F0BD10B51AB1838A0B43838204E05D
:102B9000838ACC43A4B22340838210BD028A4FF6BD
:102BA000F0731A400282028A0A43028270478289C5
:102BB0004FF2FF731A40828182890A4382817047F3
:102BC00021B1828942F00202828104E082894FF6BB
:102BD000FD731A4082817047028A4FF6DF731A40F4
:102BE0000282028A0A430282704721B1028A42F4B9
:102BF0008042028204E0028A4BF6FF731A4002828E
:102C00007047C1F308028280704701468888C0F38C
:102C100008007047818941F0010181817047028B72
:102C2000D2B20283028B42EA012202837047028BF6
:102C300002F47F420283028B0A430283704721B170
:102C4000828A42F02002828204E0828A4FF6DF7399
:102C50001A408282704721B1828A42F01002828239
:102C600004E0828A4FF6EF731A408282704721B1E6
:102C7000828A42F00802828204E0828A4FF6F77369
:102C80001A408282704721B1828942F400428281D7
:102C900003E08289C2F30E028281704721B1828AE9
:102CA00042F40062828204E0828A4FF2FF731A408B
:102CB00082827047828A4FF6FB731A408282828A30
:102CC0000A438282704721B1828A42F002028282E4
:102CD00004E0828A4FF6FD731A40828270470246F2
:102CE0000020B1F5007F00D100BF13880B4201D056
:102CF000012000E00020704701F40072B2F5007F6F
:102D000000D100BFCA430280704770B5024600245C
:102D1000002300250020A1F510666A3E00D100BF07
:102D2000C1F3421501F01F03012606FA03F3012D3A
:102D300002D19689334006E0022D02D1168A334033
:102D400001E0968A33400C12012606FA04F4168834
:102D5000344013B10CB1012000E0002070BD10B56B
:102D600000220023A1F510646A3C00D100BF0A12C2
:102D700001249440A3B2DC43048010BD003801401C
:102D80000044004000480040004C0040005000401B
:102D9000DB48006840F00100D949086008464068F7
:102DA000D8490840D649486008460068D6490840D6
:102DB000D34908600846006820F48020086008466F
:102DC000406820F4FE0048604FF41F0088607047A0
:102DD000CB49096821F48031C94A1160114609685C
:102DE00021F480211160B0F5803F03D0B0F5802F31
:102DF0000ED106E0C249096841F48031C04A116031
:102E000007E0BF49096841F4A021BD4A116000E014
:102E100000BF00BF704710B501460022002300200C
:102E20004A11012A02D1B64C236806E0022A02D1D7
:102E3000B34C236A01E0B24C636A01F01F02012423
:102E400094401C4201D0012000E0002010BD70B56C
:102E500000240025002600BF3120FFF7DCFF0646D6
:102E6000641CB4F5A06F01D0002EF5D03120FFF71F
:102E7000D2FF08B1012500E00025284670BD0146BB
:102E800000209F4A106820F0F80040EAC10010605E
:102E900070479E490860704702460020984B58686A
:102EA00020F47C1042EA01031843954B58607047A8
:102EB00096490866704701460020914A506820F004
:102EC00003000843506070478D48406800F00C00D4
:102ED0007047014600208A4A506820F0F0000843FD
:102EE0005060704701460020854A506820F4E06039
:102EF00008435060704701460020814A506820F422
:102F0000605040EAC1005060704729B17C4A527A53
:102F100002437B4B5A7206E0794A527AC343DBB2D2
:102F20001A40774B5A7270477949086070470146DA
:102F30000020734A506820F44040084350607047B6
:102F40000021744A11706E4A82F82010012802D0C4
:102F5000042808D103E001216E4A117004E0052124
:102F60006C4A117000E000BF00BF70476A490860FA
:102F700070476349096A0143614A116270476749B2
:102F80000860704730B500210022002400235C4D0A
:102F90006D6805F00C0121B1042905D0082923D161
:102FA00005E05F4D056022E05D4D05601FE0544D7A
:102FB0006D6805F47012524D6D6805F48034022579
:102FC00005EB92421CB9574D554305600BE04C4D43
:102FD0006D6815F4003F03D0524D5543056002E083
:102FE0004F4D5543056002E04D4D056000BF00BFE9
:102FF000434D6D6805F0F00109094B4D6B5C0568A8
:10300000DD4045603E4D6D6805F4E061090A464DBE
:103010006B5C4568DD408560394D6D6805F4605135
:10302000C90A414D6B5C4568DD40C560344D6D6833
:1030300005F44041890B3D4D6B5CC568B5FBF3F56C
:10304000056130BD29B12E4A526902432C4B5A61A9
:1030500004E02B4A52698243294B5A61704729B1D7
:10306000274A92690243264B9A6104E0244A9269F6
:103070008243234B9A61704729B1214AD2690243A6
:103080001F4BDA6104E01E4AD26982431C4BDA61AD
:10309000704729B11A4AD2680243194BDA6004E03A
:1030A000174AD2688243164BDA60704729B1144A36
:1030B00012690243124B1A6104E0114A12698243F9
:1030C0000F4B1A6170471A49086070470F49C8646E
:1030D00070470B49C87170470948406A40F08070DA
:1030E00007494862704701460020054A92680A4233
:1030F00001D0012000E0002070470149887270472C
:10310000001002400000FFF8FFFFF6FE0000424200
:10311000D800424220100240800442423C04424215
:1031200000127A0000093D00A0000020B00000203D
:103130004004424210B50446CA48844208D10121E5
:103140000420FFF7A6FF00210420FFF7A2FF46E0BE
:10315000C548844208D101210820FFF79AFF0021C9
:103160000820FFF796FF3AE0C048844208D10121C9
:103170001020FFF78EFF00211020FFF78AFF2EE0BE
:10318000BB48844208D101212020FFF782FF0021A3
:103190002020FFF77EFF22E0B648844208D10121BB
:1031A0004020FFF776FF00214020FFF772FF16E076
:1031B000B148844208D101218020FFF76AFF002135
:1031C0008020FFF766FF0AE0AC48844207D1012166
:1031D0008015FFF75EFF0021A015FFF75AFF10BD15
:1031E00010B501210846FFF754FF00210120FFF729
:1031F00050FF10BD2DE9F0410246002500260020B9
:1032000000230024002791F803C00CF00F0591F86B
:1032100003C01CF0100F03D091F802C04CEA050562
:10322000B1F800C01CF0FF0F31D0146800202BE073
:103230004FF0010C0CFA00F3B1F800C00CEA0306E1
:103240009E4220D183004FF00F0C0CFA03F7BC43D1
:1032500005FA03FC4CEA040491F803C0BCF1280F02
:1032600006D14FF0010C0CFA00FCC2F814C00AE0C1
:1032700091F803C0BCF1480F05D14FF0010C0CFAD6
:1032800000FCC2F810C0401C0828D1D31460B1F86B
:1032900000C0BCF1FF0F34DD546800202EE000F1C7
:1032A000080C4FF0010808FA0CF3B1F800C00CEA62
:1032B00003069E4221D183004FF00F0C0CFA03F756
:1032C000BC4305FA03FC4CEA040491F803C0BCF1CA
:1032D000280F05D100F1080C08FA0CF8C2F8148088
:1032E00091F803C0BCF1480F07D100F1080C4FF072
:1032F000010808FA0CF8C2F81080401C0828CED348
:103300005460BDE8F0814FF6FF71018002218170A9
:103310000421C17070470246002093680B4201D01F
:10332000012000E0002070470146886880B27047A5
:1033300002460020D3680B4201D0012000E00020AB
:1033400070470146C86880B27047016170474161AB
:1033500070470AB1016100E041617047C160704788
:103360004FF480320A43826181618261826982699D
:10337000704702460020424B18684FF68073184091
:1033800040EA021008433E4B186070473D49C8614F
:103390007047F0B50A46002300240021002500F004
:1033A0000046B6F1004F02D1354EF16901E0344ECE
:1033B0007168C0F3034583B200F44016B6F5401FB0
:1033C00008D121F070612E4E766826F070662C4F81
:1033D0007E6012E000F48016B6F5801F06D1032649
:1033E00006FA05F4A14341F0706106E0460D36018E
:1033F00003FA06F6B14341F0706122B1460D360181
:1034000003FA06F6314300F00046B6F1004F02D150
:103410001B4EF16101E01A4E7160F0BD30B5002223
:103420008B071C0F0F2303FA04F2154B08338C1083
:1034300053F824309343124C08348D1044F825304F
:1034400023468C1053F824308C07240F00FA04F420
:1034500023430B4C08348D1044F8253030BD0A4905
:103460000860704700080140000C01400010014056
:103470000014014000180140001C014000200140E0
:103480000000014000002042DC0020420649074ABB
:103490000868504343F239021044086040087047FE
:1034A0000149086070470000B40000206D4EC6411D
:1034B000F0B480EA0102D20F4300B3EB410F02D215
:1034C0000346084619464B0042D0C30DDDB2C1F396
:1034D000C7542C1B202C35DAC1F3160141F400052A
:1034E00002B16D42C4F1200605FA06F125412844D7
:1034F000B3EBD05F23D0C2B1012CA0EBC35009DCE9
:10350000F0BC4FF0004202EAC35200F50000DBB20B
:1035100000F0B0BA400000F1807000EBC350A0F1A1
:10352000807040EAD170490009E0490841EAC07161
:10353000A0EBC35000F50000400800EBC350F0BC06
:1035400000F08FBA5142012303EB4101801AF6E7E4
:10355000F0BC704781F00041AAE780F00040A7E787
:1035600080EA010210B502F00042400026D04B0074
:1035700023D04FEA106101EB1361C0F35600C3F38F
:10358000560340F4000043F40003A0FB0330A1F114
:103590007F014FEA00401C0401D000F1010050EA15
:1035A000134001D44000491EC3B20C0604EBD010F6
:1035B000401C4008802B02D003E0002010BD20F00A
:1035C0000100002900DA0020104310BD80EA01024A
:1035D00002F0004330B430F0004221F0004015D03A
:1035E000A0B1C0F3C755C2F3C754C2F31601C0F36C
:1035F0001600651B41F4000140F400007D35814256
:1036000001D36D1C00E04900002D02DA30BC00201F
:1036100070474FF400020024814201D3091A144379
:1036200052084FEA4101F7D151B1814202D14FF026
:10363000004105E002D24FF0010101E06FF001010D
:1036400004EBC55030BC184400F00BBA2DE9FE4F16
:10365000074681EA0300C00F0E46019021F00041A9
:1036600023F00044B81AA14105D238463146174626
:103670001E460B46024623F00040104304D1384654
:10368000314603B0BDE8F08F350DC5F30A00C3F332
:103690000A510290401A0090402867DAC3F31300E1
:1036A00040F4801B0198924620B10023D2EB030A1C
:1036B00063EB0B0B00985946C0F14002504600F0F6
:1036C0009FF980460C4650465946009A00F0B7F9DB
:1036D000C0197141EF1785EA11533B433FD0019A5E
:1036E0004AB3009A012A11DC0022801A61EB0551CD
:1036F0004FF0004303EA0555CDE90025801841F558
:1037000080114246234600F0F1F9BAE72E05002564
:10371000401B61EB0601401941F58012001852412F
:103720002818A6F5001343EB020140EAD47018EB09
:103730000808644113E064084FEA38084FF00002BB
:1037400044EAC0744FEA0553801A61EB0301801804
:1037500041F5801149084FEA30008018594142462E
:10376000234603B0BDE8F04F00F0B3B90198012241
:1037700040000023D0EB020263EBE07301984FEAB4
:10378000E074381A66EB0401EBE783F000435DE771
:1037900081F000415AE72DE9FE4F81EA030421F050
:1037A000004504F0004423F000414FF0000A00946B
:1037B00050EA050302D052EA010304D10020014679
:1037C00003B0BDE8F08FC1F30A53C5F30A54234494
:1037D000A3F2F3330193A0FB02B3C5F3130545F441
:1037E000801CC1F3130141F480180CFB023300FB71
:1037F000083E810A930A41EA8C5143EA8853A1FBAF
:1038000003474FEA9C2505FB03734FEA982601FB0B
:1038100006373D05260545EA1435BBEB06016EEB80
:103820000503850E920E45EA8C1542EA8812A5FB27
:103830000206261E67EB00070C0D44EA0334A619A6
:1038400047EB1350C1F313044FF000031946E5FB97
:1038500002014FEA033545EA1455019B4FEA043251
:10386000009CA3F10C03CDE900A445EA06050293F0
:103870002B4600F03BF9A3E72DE9F04D81EA030464
:1038800004F0004B21F0004714464FF0000A23F0EB
:10389000004150EA070220D054EA01021DD0C1F3D2
:1038A0000A550246C1F31300C7F30A56C7F31303C0
:1038B00040F4801143F48013A6EB0508101BD64694
:1038C00008F2FD3873EB010002D308F1010801E0B2
:1038D00092185B41B8F1000F03DA00200146BDE801
:1038E000F08D00204FF48015064607460EE0B2EB3F
:1038F000040C73EB010C04D3121B064363EB0103AE
:103900002F436D084FEA300092185B4150EA050CD6
:10391000EDD152EA030012D082EA040083EA0105E5
:10392000284303D100224FF0004308E0101B8B41D5
:1039300002D20122002302E06FF0010253101AEBC1
:10394000060047EB085110EB0A0041EB0B01BDE804
:10395000F04D00F0BEB8C10F80EAE0700844CA071D
:103960009623002100F086B896230022114600F02D
:1039700081B80EB5C10F80EAE0700844CA07002183
:1039800040F233438DE80E000A460B4600F0AEF8D5
:1039900003B000BD20F00040C10DC0F3160040F49C
:1039A00000007F2901DA00207047962903DCC1F16D
:1039B0009601C8407047963988407047C1F30A5253
:1039C000C1F3130140F2FF3341F480119A4201DA4E
:1039D0000020704740F233439A42A2F2334202DCA5
:1039E000524200F01CB8904070470000002801DBF4
:1039F000C0F10040002901DBC1F10041884270475D
:103A0000202A04DB203A00FA02F10020704791409E
:103A1000C2F1200320FA03F3194390407047202A93
:103A200004DB203A21FA02F00021704721FA02F368
:103A3000D040C2F120029140084319467047202A25
:103A400006DBCB17203A41FA02F043EAE07306E0C6
:103A500041FA02F3D040C2F12002914008431946D6
:103A600070470029A8BF7047401C490008BF20F0DC
:103A70000100704710B4B0FA80FC00FA0CF050EA74
:103A8000010404BF10BC704749B1CCF1200421FAF5
:103A900004F411FA0CF118BF012121430843A3EBF0
:103AA0000C01CB1D4FEA00614FEA102048BF0020F7
:103AB000BCBF10BC704700EBC35010440029A4BF2A
:103AC00010BC7047401C490008BF20F0010010BC2A
:103AD000704710B5002B08DA401C41F10001921824
:103AE0005B411A4301D120F0010010BD2DE9FF4DCB
:103AF000934611B1B1FA81F202E0B0FA80F22032BD
:103B00009246FFF77DFF039A0746884640EA0B007E
:103B100011435B46084304D13846414604B0BDE832
:103B2000F08D114653EA020016D0CAF14002584601
:103B3000FFF775FF04460D464FF001065846524602
:103B40000399FFF75DFF084300D10026344345EA9F
:103B5000E675274345EA08080E984FF00005A0EBEC
:103B60000A014FEAD7200A314FEA47532A4640EA72
:103B700048504FEAD82402D500200146CEE7281845
:103B800044EB0151DDE90C45001904B06941BDE881
:103B9000F04D9EE7064C074D06E0E06840F001035B
:103BA00094E8070098471034AC42F6D3FCF7C4FA07
:103BB000B0530008D053000802E008C8121F08C123
:103BC000002AFAD170477047002001E001C1121F9E
:103BD000002AFBD170470000000000000000000038
:103BE0000000000000000000183C3C3C18181800C1
:103BF000181800000000006666662400000000003F
:103C00000000000000000000006C6CFE6C6C6CFE9C
:103C10006C6C0000000018187CC6C2C07C0686C60A
:103C20007C181800000000000000C2C60C183060AC
:103C3000C686000000000000386C6C3876DCCCCC06
:103C4000CC76000000000030303060000000000042
:103C500000000000000000000C1830303030303020
:103C6000180C00000000000030180C0C0C0C0C0CA0
:103C70001830000000000000000000663CFF3C66B9
:103C8000000000000000000000000018187E181856
:103C9000000000000000000000000000000000180C
:103CA00018183000000000000000000000FE0000B6
:103CB0000000000000000000000000000000000004
:103CC0001818000000000000000002060C18306008
:103CD000C0800000000000007CC6C6CED6D6E6C676
:103CE000C67C000000000000183878181818181852
:103CF000187E0000000000007CC6060C183060C072
:103D0000C6FE0000000000007CC606063C06060653
:103D1000C67C0000000000000C1C3C6CCCFE0C0CAF
:103D20000C1E000000000000FEC0C0C0FC0E060615
:103D3000C67C0000000000003860C0C0FCC6C6C6DB
:103D4000C67C000000000000FEC606060C183030DD
:103D500030300000000000007CC6C6C67CC6C6C667
:103D6000C67C0000000000007CC6C6C67E060606B3
:103D70000C78000000000000000018180000001877
:103D800018000000000000000000181800000018D3
:103D9000183000000000000000060C1830603018D9
:103DA0000C0600000000000000000000FE0000FE05
:103DB0000000000000000000006030180C060C1825
:103DC00030600000000000007CC6C60C1818180007
:103DD0001818000000000000007CC6C6DEDEDEDC35
:103DE000C07C00000000000010386CC6C6FEC6C6CD
:103DF000C6C6000000000000FC6666667C6666665B
:103E000066FC0000000000003C66C2C0C0C0C0C22A
:103E1000663C000000000000F86C66666666666638
:103E20006CF8000000000000FE666268786860625E
:103E300066FE000000000000FE6662687868606050
:103E400060F00000000000003C66C2C0C0DEC6C6D4
:103E5000663A000000000000C6C6C6C6FEC6C6C65A
:103E6000C6C60000000000003C18181818181818E2
:103E7000183C0000000000001E0C0C0C0C0CCCCCFC
:103E8000CC78000000000000E6666C6C78786C6608
:103E900066E6000000000000F06060606060606244
:103EA00066FE000000000000C6EEFEFED6C6C6C6D6
:103EB000C6C6000000000000C6E6F6FEDECEC6C69E
:103EC000C6C6000000000000386CC6C6C6C6C6C61E
:103ED0006C38000000000000FC6666667C60606074
:103EE00060F00000000000007CC6C6C6C6C6C6D68C
:103EF000DE7C0C0E00000000FC6666667C6C66666C
:103F000066E60000000000007CC6C660380C06C6ED
:103F1000C67C0000000000007E7E5A181818181891
:103F2000183C000000000000C6C6C6C6C6C6C6C60D
:103F3000C67C000000000000C6C6C6C6C6C6C66C69
:103F40003810000000000000C6C6C6C6C6D6D6FEA1
:103F50006C6C000000000000C6C66C6C38386C6CDD
:103F6000C6C6000000000000666666663C181818A9
:103F7000183C000000000000FEC6860C183060C22D
:103F8000C6FE0000000000003C30303030303030E1
:103F9000303C0000000000000080C0E070381C0EC3
:103FA00006020000000000003C0C0C0C0C0C0C0C79
:103FB0000C3C0000000010386CC60000000000003F
:103FC00000000000000000000000000000000000F1
:103FD000000000FF0000303018000000000000006A
:103FE0000000000000000000000000780C7CCCCC39
:103FF000CC76000000000000E06060786C666666C9
:1040000066DC0000000000000000007CC6C0C0C0EC
:10401000C67C0000000000001C0C0C3C6CCCCCCC1E
:10402000CC760000000000000000007CC6FEC0C08E
:10403000C67C000000000000386C6460F0606060C6
:1040400060F000000000000000000076CCCCCCCC7A
:10405000CC7C0CCC78000000E060606C7666666614
:1040600066E600000000000018180038181818183C
:10407000183C0000000000000606000E06060606BA
:10408000060666663C000000E06060666C78786C4E
:1040900066E60000000000003818181818181818F4
:1040A000183C000000000000000000ECFED6D6D650
:1040B000D6D6000000000000000000DC66666666E0
:1040C00066660000000000000000007CC6C6C6C690
:1040D000C67C000000000000000000DC666666662A
:1040E000667C6060F000000000000076CCCCCCCC98
:1040F000CC7C0C0C1E000000000000DC76626060CE
:1041000060F00000000000000000007CC660380C79
:10411000C67C000000000000103030FC3030303031
:10412000361C000000000000000000CCCCCCCCCC41
:10413000CC7600000000000000000066666666663F
:104140003C18000000000000000000C6C6C6D6D61D
:10415000FE6C000000000000000000C66C3838381B
:104160006CC6000000000000000000C6C6C6C6C63F
:10417000C67E060CF8000000000000FECC1830607F
:10418000C6FE0000000000000E181818701818185D
:10419000180E000000000000181818180018181851
:1041A0001818000000000000701818180E181818D1
:1041B000187000000000000076DC00000000000025
:1041C0000000000000000000000010386CC6C6C6E9
:1041D000FE000000000000000000000000000000E1
:1041E00000000000000000000000000000000000CF
:1041F00000000000000000000000000000000000BF
:1042000000000000000000008001800180018001AA
:104210008001800180018001800180018001800196
:10422000800100000000800180010000000000000B
:1042300000000000000000000000CC00CC00CC001A
:10424000CC00CC00CC00000000000000000000000A
:10425000000000000000000000000000000000005E
:10426000000000000000000000000000000000004E
:104270000000600C600C600C30063006FE1FFE1F54
:10428000300638071803FE1FFE1F180318038C01A1
:104290008C018C01000000008000E003F80F9C0EF0
:1042A0008C1C8C188C009800F801E007800E801C94
:1042B0008C188C189C18B80CF00FE003800080005C
:1042C0000000000000000000000000000E181B0CA1
:1042D000110C11061106110311039B018E01C03848
:1042E000C06C60446044304430441844186C0C384E
:1042F0000000000000000000E001F003380718068D
:1043000018063003F001F000F8009C310E33061E51
:10431000061C061C063FFC73F02100000000000094
:10432000000000000000000000000C000C000C0069
:104330000C000C000C000000000000000000000059
:10434000000000000000000000000000000000006D
:104350000000000000000000000200038001C00017
:10436000C0006000600030003000300030003000DD
:1043700030003000300060006000C000C0008001EC
:10438000000300020000000020006000C000800167
:104390008001000300030006000600060006000678
:1043A0000006000600060003000380018001C00033
:1043B000600020000000000000000000000000007D
:1043C0000000C000C000D806F807E001300338073D
:1043D00000000000000000000000000000000000DD
:1043E00000000000000000000000000000000000CD
:1043F000000080018001800180018001FC3FFC3FC2
:104400008001800180018001800100000000000027
:10441000000000000000000000000000000000009C
:10442000000000000000000000000000000000008C
:104430000000000000000000800180010001000178
:1044400080000000000000000000000000000000EC
:104450000000000000000000000000000000E00775
:10446000E007000000000000000000000000000065
:10447000000000000000000000000000000000003C
:10448000000000000000000000000000000000002C
:104490000000000000000000C000C000000000009C
:1044A0000000000000000000000C000C00060006E8
:1044B00000060003000300038003800180018001E7
:1044C000C000C000C00060006000000000000000EC
:1044D0000000000000000000E003F007380E180C98
:1044E0000C180C180C180C180C180C180C180C18AC
:1044F0000C18180C380EF007E00300000000000054
:10450000000000000000000000018001C001F00177
:104510009801880180018001800180018001800173
:104520008001800180018001800100000000000006
:104530000000000000000000E003F80F180C0C1849
:104540000C1800180018000C000600038001C000C1
:10455000600030001800FC1FFC1F0000000000007D
:104560000000000000000000E001F807180E0C0C2D
:104570000C0C000C0006C003C007000C001800184B
:104580000C180C18180CF807E003000000000000DD
:104590000000000000000000000C000E000F000FE3
:1045A000800DC00C600C600C300C180C0C0CFC3F27
:1045B000FC3F000C000C000C000C00000000000090
:1045C0000000000000000000F80FF80F18001800AD
:1045D0000C00EC03FC071C0E001C0018001800184F
:1045E0000C181C0C180EF807E00300000000000077
:1045F0000000000000000000C007F00F381C181871
:1046000018000C00CC03EC0F3C0E1C1C0C180C18F2
:104610000C18181C380EF007E00300000000000022
:104620000000000000000000FC1FFC1F000C000642
:104630000006000380038001C001C000E0006000AC
:10464000600070003000300030000000000000000A
:104650000000000000000000E003F007380E180C16
:10466000180C180C3806F007F007180C0C180C186A
:104670000C180C18380CF80FE003000000000000C4
:104680000000000000000000E003F007380E1C0CE2
:104690000C180C180C181C1C381EF81BE0190018FC
:1046A000000C000C1C0EF807F001000000000000D8
:1046B00000000000000000000000000000000000FA
:1046C00000008001800100000000000000000000E8
:1046D00000000000000080018001000000000000D8
:1046E00000000000000000000000000000000000CA
:1046F00000008001800100000000000000000000B8
:104700000000000000008001800100010001800025
:104710000000000000000000000000000000000099
:104720000000000000000010001C800FE003F800F3
:104730001800F800E003800F001C001000000000CB
:104740000000000000000000000000000000000069
:10475000000000000000F81F000000000000F81F2B
:104760000000000000000000000000000000000049
:104770000000000000000000000000000000000039
:1047800000000000000008003800F001C007001F12
:104790000018001FC007F0013800080000000000EA
:1047A0000000000000000000E003F80F180C0C18D7
:1047B0000C180018000C000600038001C000C000A7
:1047C000C00000000000C000C000000000000000A9
:1047D00000000000000000000000E007181804209E
:1047E000C229224A114409440944094409221113E7
:1047F000E20C024004201818E0070000000000004E
:10480000000000000000000080038003C006C00616
:10481000C006600C600C301830183018F83FF83FB4
:104820001C700C600C6006C006C000000000000098
:104830000000000000000000FC03FC0F0C0C0C1832
:104840000C180C180C0CFC07FC0F0C180C300C305E
:104850000C300C300C18FC1FFC070000000000009E
:104860000000000000000000C007F01F38381C30B6
:104870000C70066006000600060006000600060032
:1048800006600C701C30F01FE00700000000000004
:104890000000000000000000FE03FE0F060E0618D8
:1048A0000618063006300630063006300630063070
:1048B00006180618060EFE0FFE030000000000009A
:1048C0000000000000000000FC3FFC3F0C000C005A
:1048D0000C000C000C00FC1FFC1F0C000C000C005A
:1048E0000C000C000C00FC3FFC3F0000000000002E
:1048F0000000000000000000F83FF83F180018001A
:10490000180018001800F81FF81F180018001800E9
:10491000180018001800180018000000000000001F
:104920000000000000000000E00FF83F3C780E603F
:1049300006E007C00300030003FE03FE03C007C038
:1049400006C00EC03CF0F83FE00F00000000000081
:1049500000000000000000000C300C300C300C3067
:104960000C300C300C30FC3FFC3F0C300C300C3069
:104970000C300C300C300C300C300000000000000B
:104980000000000000000000800180018001800123
:10499000800180018001800180018001800180010F
:1049A0008001800180018001800100000000000082
:1049B00000000000000000000006000600060006DF
:1049C00000060006000600060006000600060006B7
:1049D000180618063807F003E00100000000000088
:1049E000000000000000000006300618060C060655
:1049F00006038601C60066007600DE008E0106030F
:104A00000606060C061806300660000000000000CE
:104A10000000000000000000180018001800180036
:104A200018001800180018001800180018001800C6
:104A3000180018001800F81FF81F00000000000000
:104A400000000000000000000EE01EF01EF01EF04E
:104A500036D836D836D836D866CC66CC66CCC6C6FC
:104A6000C6C6C6C6C6C686C386C300000000000010
:104A700000000000000000000C301C303C303C30D6
:104A80006C306C30CC30CC308C310C330C330C3679
:104A90000C360C3C0C3C0C380C30000000000000C4
:104AA0000000000000000000E007F81F1C380E7036
:104AB000066003C003C003C003C003C003C003C03B
:104AC00006600E701C38F81FE007000000000000B0
:104AD0000000000000000000FC0FFC1F0C380C3030
:104AE0000C300C300C300C18FC1FFC070C000C00B8
:104AF0000C000C000C000C000C000000000000007A
:104B00000000000000000000E007F81F1C380E70D5
:104B1000066003E003C003C003C003C003C007E096
:104B200006630E3F1C3CF83FE0F700C000000000A9
:104B30000000000000000000FE0FFE1F06380630D7
:104B4000063006300638FE1FFE0706030606060C72
:104B50000618061806300630066000000000000047
:104B60000000000000000000E003F80F1C0C0C180F
:104B70000C180C001C00F803E00F001E0038063073
:104B800006300E301C1CF80FE0070000000000008B
:104B90000000000000000000FE7FFE7F8001800119
:104BA00080018001800180018001800180018001FD
:104BB0008001800180018001800100000000000070
:104BC00000000000000000000C300C300C300C30F5
:104BD0000C300C300C300C300C300C300C300C30F5
:104BE0000C300C301818F81FE0070000000000001F
:104BF00000000000000000000360063006300630B0
:104C00000C180C180C18180C180C380E300630063E
:104C1000700760036003C001C001000000000000D5
:104C200000000000000000000360C361C361C361B5
:104C30006633663366336633663366336C1B6C1BD0
:104C40006C1B2C1A3C1E380E380E000000000000B1
:104C500000000000000000000FE00C701830301859
:104C6000700C600EC00780038003C003E006700C68
:104C7000301C18180C300E6007E000000000000027
:104C8000000000000000000003C006600C301C386B
:104C90003818300C6006E007C003800180018001F5
:104CA000800180018001800180010000000000007F
:104CB0000000000000000000FC7FFC7F006000306E
:104CC0000018000C000600038001C00060003000E6
:104CD00018000C000600FE7FFE7F000000000000B0
:104CE0000000000000000000E003E003600060003E
:104CF00060006000600060006000600060006000B4
:104D000060006000600060006000600060006000A3
:104D1000E003E003000000003000300060006000AD
:104D20006000C000C000C000C0018001800180019F
:104D3000000300030003000600060000000000005E
:104D40000000000000000000E003E0030003000397
:104D5000000300030003000300030003000300033B
:104D6000000300030003000300030003000300032B
:104D7000E003E003000000000000C001C001600388
:104D80006003600330063006180C180C00000000A9
:104D90000000000000000000000000000000000013
:104DA0000000000000000000000000000000000003
:104DB00000000000000000000000000000000000F3
:104DC0000000000000000000FFFFFFFF00000000E7
:104DD00000000000000000000C000C000C000C00A3
:104DE0000C000C00000000000000000000000000AB
:104DF00000000000000000000000000000000000B3
:104E000000000000000000000000000000000000A2
:104E10000000F003F8071C0C0C0C000FF00FF80C4E
:104E20000C0C0C0C1C0FF80FF01800000000000018
:104E30000000000000000000180018001800180012
:104E40001800D803F80F380C181818181818181864
:104E500018181818380CF80FD803000000000000CC
:104E60000000000000000000000000000000000042
:104E70000000C003F007300E180C180018001800CE
:104E80001800180C300EF007C003000000000000EE
:104E900000000000000000000018001800180018B2
:104EA0000018C01BF01F301C1818181818181818F4
:104EB00018181818301CF01FC01B0000000000005C
:104EC00000000000000000000000000000000000E2
:104ED0000000C003F00F300C1818F81FF81F18005E
:104EE00018003818301CF00FC00700000000000048
:104EF0000000000000000000800FC00FC000C000D4
:104F0000C000F007F007C000C000C000C000C00033
:104F1000C000C000C000C000C000000000000000D1
:104F20000000000000000000000000000000000081
:104F30000000E00DF80F180E0C0C0C0C0C0C0C0CF7
:104F40000C0C0C0C180EF80FE00D000C0C0C1C06D1
:104F5000F807F00100000000180018001800180001
:104F60001800D807F80F381C18181818181818182F
:104F70001818181818181818181800000000000041
:104F80000000000000000000C000C00000000000A1
:104F90000000C000C000C000C000C000C000C000D1
:104FA000C000C000C000C000C00000000000000041
:104FB0000000000000000000C000C0000000000071
:104FC0000000C000C000C000C000C000C000C000A1
:104FD000C000C000C000C000C000C000C000C000D1
:104FE000F8007800000000000C000C000C000C0021
:104FF0000C000C0C0C060C038C01CC006C00FC00AB
:105000009C018C030C030C060C0C0000000000003B
:105010000000000000000000C000C000C000C00090
:10502000C000C000C000C000C000C000C000C00080
:10503000C000C000C000C000C000000000000000B0
:105040000000000000000000000000000000000060
:1050500000007C3CFF7EC7E383C183C183C183C161
:1050600083C183C183C183C183C1000000000000EC
:105070000000000000000000000000000000000030
:1050800000009807F80F381C181818181818181866
:105090001818181818181818181800000000000020
:1050A0000000000000000000000000000000000000
:1050B0000000C003F00F300C181818181818181832
:1050C00018181818300CF00FC00300000000000082
:1050D00000000000000000000000000000000000D0
:1050E0000000D803F80F380C1818181818181818DA
:1050F00018181818380CF80FD803180018001800E2
:10510000180018000000000000000000000000006F
:105110000000C01BF01F301C181818181818181899
:1051200018181818301CF01FC01B001800180018A1
:10513000001800180000000000000000000000003F
:105140000000B007F0037000300030003000300085
:10515000300030003000300030000000000000005F
:10516000000000000000000000000000000000003F
:105170000000E003F003380E180C3800F003C007FD
:10518000000C180C380EF007E003000000000000CF
:10519000000000000000000000008000C000C0000F
:1051A000C000F007F007C000C000C000C000C00091
:1051B000C000C000C000C007800700000000000061
:1051C00000000000000000000000000000000000DF
:1051D000000018181818181818181818181818187F
:1051E00018181818381CF01FE01900000000000003
:1051F00000000000000000000000000000000000AF
:1052000000000C18180C180C180C3006300630066C
:10521000600360036003C001C001000000000000E3
:10522000000000000000000000000000000000007E
:105230000000C141C141C361636363636363363688
:10524000363636361C1C1C1C1C1C000000000000DE
:10525000000000000000000000000000000000004E
:1052600000001C38381C300C6006600360036003CB
:1052700060036006300C381C1C3800000000000081
:10528000000000000000000000000000000000001E
:1052900000001830301830187018600C600CE00CEA
:1052A000C006C00680038003800380018001C00126
:1052B000F00070000000000000000000000000008E
:1052C0000000FC1FFC1F000C000600038001C00052
:1052D000600030001800FC1FFC1F000000000000F0
:1052E000000000000000000000038001C000C000BA
:1052F000C000C000C000C00060006000300060005E
:105300004000C000C000C000C000C000C00080015C
:105310000003000000000000800180018001800186
:105320008001800180018001800180018001800175
:105330008001800180018001800180018001800165
:1053400080018001000000006000C000C0018001F9
:10535000800180018001800100030003000600033A
:105360000001800180018001800180018001C00076
:1053700060000000000000000000000000000000CD
:10538000000000000000F010F81F080F00000000EF
:10539000000000000000000000000000000000000D
:1053A00000000000000047616D65204F76657200C7
:1053B000D053000800000020B8000000B83B0008EF
:1053C00088540008B8000020F8050000C83B000819
:1053D000A6530008000000000000000000000000CC
:1053E00000000000000000000000C088FF7F0100F6
:1053F00000E8FF7F020040C4FF7F0300002EFF7F14
:105400000000C0441FF80500008E1FF8060080C889
:105410001FF8070000E21FF80400408CE0FF0900BD
:10542000006CE0FF0800804C1F050B0000C61F0544
:105430000A00004EFFFF0D00808CFFFF0E0000E40D
:10544000FFFF0F00404CFFFF0C00888800F81100A0
:1054500000F000F8100000CC1F00120000A24A0467
:105460000000000000000000010203040607080914
:1054700000000000010203040102030406070809FA
:08548000020406080000000010
:0400000508000131BD
:00000001FF
